{"abi":[{"type":"constructor","inputs":[{"name":"_initialSupply","type":"uint256","internalType":"uint256"}],"stateMutability":"nonpayable"},{"type":"function","name":"balanceOf","inputs":[{"name":"account","type":"address","internalType":"address"}],"outputs":[{"name":"","type":"uint256","internalType":"uint256"}],"stateMutability":"view"},{"type":"function","name":"burn","inputs":[{"name":"amount","type":"uint256","internalType":"uint256"}],"outputs":[],"stateMutability":"nonpayable"},{"type":"function","name":"decimals","inputs":[],"outputs":[{"name":"","type":"uint8","internalType":"uint8"}],"stateMutability":"view"},{"type":"function","name":"name","inputs":[],"outputs":[{"name":"","type":"string","internalType":"string"}],"stateMutability":"view"},{"type":"function","name":"symbol","inputs":[],"outputs":[{"name":"","type":"string","internalType":"string"}],"stateMutability":"view"},{"type":"function","name":"totalSupply","inputs":[],"outputs":[{"name":"","type":"uint256","internalType":"uint256"}],"stateMutability":"view"},{"type":"function","name":"transfer","inputs":[{"name":"to","type":"address","internalType":"address"},{"name":"amount","type":"uint256","internalType":"uint256"}],"outputs":[{"name":"","type":"bool","internalType":"bool"}],"stateMutability":"nonpayable"},{"type":"function","name":"transferFrom","inputs":[{"name":"from","type":"address","internalType":"address"},{"name":"to","type":"address","internalType":"address"},{"name":"amount","type":"uint256","internalType":"uint256"}],"outputs":[{"name":"","type":"bool","internalType":"bool"}],"stateMutability":"nonpayable"},{"type":"event","name":"Transfer","inputs":[{"name":"from","type":"address","indexed":true,"internalType":"address"},{"name":"to","type":"address","indexed":true,"internalType":"address"},{"name":"value","type":"uint256","indexed":false,"internalType":"uint256"}],"anonymous":false}],"bytecode":{"object":"0x60806040526040518060400160405280600f81526020017f4d79536869656c646564546f6b656e00000000000000000000000000000000008152505f90816100479190610493565b506040518060400160405280600381526020017f4d535400000000000000000000000000000000000000000000000000000000008152506001908161008c9190610493565b50348015610098575f5ffd5b5060405161124038038061124083398181016040528101906100ba9190610590565b6100ca33826100d060201b60201c565b506106e5565b5f73ffffffffffffffffffffffffffffffffffffffff168273ffffffffffffffffffffffffffffffffffffffff160361013e576040517f08c379a000000000000000000000000000000000000000000000000000000000815260040161013590610615565b60405180910390fd5b8060025461014c9190610660565b6002819055508060035f8473ffffffffffffffffffffffffffffffffffffffff1673ffffffffffffffffffffffffffffffffffffffff1681526020019081526020015f205461019b9190610660565b60035f8473ffffffffffffffffffffffffffffffffffffffff1673ffffffffffffffffffffffffffffffffffffffff1681526020019081526020015f20819055508173ffffffffffffffffffffffffffffffffffffffff165f73ffffffffffffffffffffffffffffffffffffffff167fddf252ad1be2c89b69c2b068fc378daa952ba7f163c4a11628f55a4df523b3ef5f60405161023991906106cc565b60405180910390a35050565b5f81519050919050565b7f4e487b71000000000000000000000000000000000000000000000000000000005f52604160045260245ffd5b7f4e487b71000000000000000000000000000000000000000000000000000000005f52602260045260245ffd5b5f60028204905060018216806102c057607f821691505b6020821081036102d3576102d261027c565b5b50919050565b5f819050815f5260205f209050919050565b5f6020601f8301049050919050565b5f82821b905092915050565b5f600883026103357fffffffffffffffffffffffffffffffffffffffffffffffffffffffffffffffff826102fa565b61033f86836102fa565b95508019841693508086168417925050509392505050565b5f819050919050565b5f819050919050565b5f61038361037e61037984610357565b610360565b610357565b9050919050565b5f819050919050565b61039c83610369565b6103b06103a88261038a565b848454610306565b825550505050565b5f5f905090565b6103c76103b8565b6103d2818484610393565b505050565b5f5b828110156103f8576103ed5f8284016103bf565b6001810190506103d9565b505050565b601f82111561044b578282111561044a57610417816102d9565b610420836102eb565b610429856102eb565b6020861015610436575f90505b808301610445828403826103d7565b505050505b5b505050565b5f82821c905092915050565b5f61046b5f1984600802610450565b1980831691505092915050565b5f610483838361045c565b9150826002028217905092915050565b61049c82610245565b67ffffffffffffffff8111156104b5576104b461024f565b5b6104bf82546102a9565b6104ca8282856103fd565b5f60209050601f8311600181146104fb575f84156104e9578287015190505b6104f38582610478565b86555061055a565b601f198416610509866102d9565b5f5b828110156105305784890151825560018201915060208501945060208101905061050b565b8683101561054d5784890151610549601f89168261045c565b8355505b6001600288020188555050505b505050505050565b5f5ffd5b61056f81610357565b8114610579575f5ffd5b50565b5f8151905061058a81610566565b92915050565b5f602082840312156105a5576105a4610562565b5b5f6105b28482850161057c565b91505092915050565b5f82825260208201905092915050565b7f4d696e7420746f207a65726f20616464726573730000000000000000000000005f82015250565b5f6105ff6014836105bb565b915061060a826105cb565b602082019050919050565b5f6020820190508181035f83015261062c816105f3565b9050919050565b7f4e487b71000000000000000000000000000000000000000000000000000000005f52601160045260245ffd5b5f61066a82610357565b915061067583610357565b925082820190508082111561068d5761068c610633565b5b92915050565b5f819050919050565b5f6106b66106b16106ac84610693565b610360565b610357565b9050919050565b6106c68161069c565b82525050565b5f6020820190506106df5f8301846106bd565b92915050565b610b4e806106f25f395ff3fe608060405234801561000f575f5ffd5b5060043610610086575f3560e01c806342966c681161005957806342966c681461011457806370a082311461013057806395d89b4114610160578063a9059cbb1461017e57610086565b806306fdde031461008a57806318160ddd146100a857806323b872dd146100c6578063313ce567146100f6575b5f5ffd5b6100926101ae565b60405161009f9190610741565b60405180910390f35b6100b0610239565b6040516100bd9190610779565b60405180910390f35b6100e060048036038101906100db919061081a565b61023f565b6040516100ed9190610884565b60405180910390f35b6100fe610256565b60405161010b91906108b8565b60405180910390f35b61012e600480360381019061012991906108d1565b61025b565b005b61014a600480360381019061014591906108fc565b6103e6565b6040516101579190610779565b60405180910390f35b61016861042c565b6040516101759190610741565b60405180910390f35b61019860048036038101906101939190610927565b6104b8565b6040516101a59190610884565b60405180910390f35b5f80546101ba90610992565b80601f01602080910402602001604051908101604052809291908181526020018280546101e690610992565b80156102315780601f1061020857610100808354040283529160200191610231565b820191905f5260205f20905b81548152906001019060200180831161021457829003601f168201915b505050505081565b60025481565b5f61024b8484846104d3565b600190509392505050565b601281565b5f3390508160035f8373ffffffffffffffffffffffffffffffffffffffff1673ffffffffffffffffffffffffffffffffffffffff1681526020019081526020015f205410156102df576040517f08c379a00000000000000000000000000000000000000000000000000000000081526004016102d690610a0c565b60405180910390fd5b8160035f8373ffffffffffffffffffffffffffffffffffffffff1673ffffffffffffffffffffffffffffffffffffffff1681526020019081526020015f20546103289190610a57565b60035f8373ffffffffffffffffffffffffffffffffffffffff1673ffffffffffffffffffffffffffffffffffffffff1681526020019081526020015f2081905550816002546103779190610a57565b6002819055505f73ffffffffffffffffffffffffffffffffffffffff168173ffffffffffffffffffffffffffffffffffffffff167fddf252ad1be2c89b69c2b068fc378daa952ba7f163c4a11628f55a4df523b3ef5f6040516103da9190610acc565b60405180910390a35050565b5f60035f8373ffffffffffffffffffffffffffffffffffffffff1673ffffffffffffffffffffffffffffffffffffffff1681526020019081526020015f20549050919050565b6001805461043990610992565b80601f016020809104026020016040519081016040528092919081815260200182805461046590610992565b80156104b05780601f10610487576101008083540402835291602001916104b0565b820191905f5260205f20905b81548152906001019060200180831161049357829003601f168201915b505050505081565b5f5f3390506104c88185856104d3565b600191505092915050565b8060035f8573ffffffffffffffffffffffffffffffffffffffff1673ffffffffffffffffffffffffffffffffffffffff1681526020019081526020015f20541015610553576040517f08c379a000000000000000000000000000000000000000000000000000000000815260040161054a90610a0c565b60405180910390fd5b8060035f8573ffffffffffffffffffffffffffffffffffffffff1673ffffffffffffffffffffffffffffffffffffffff1681526020019081526020015f205461059c9190610a57565b60035f8573ffffffffffffffffffffffffffffffffffffffff1673ffffffffffffffffffffffffffffffffffffffff1681526020019081526020015f20819055508060035f8473ffffffffffffffffffffffffffffffffffffffff1673ffffffffffffffffffffffffffffffffffffffff1681526020019081526020015f20546106269190610ae5565b60035f8473ffffffffffffffffffffffffffffffffffffffff1673ffffffffffffffffffffffffffffffffffffffff1681526020019081526020015f20819055508173ffffffffffffffffffffffffffffffffffffffff168373ffffffffffffffffffffffffffffffffffffffff167fddf252ad1be2c89b69c2b068fc378daa952ba7f163c4a11628f55a4df523b3ef5f6040516106c49190610acc565b60405180910390a3505050565b5f81519050919050565b5f82825260208201905092915050565b8281835e5f83830152505050565b5f601f19601f8301169050919050565b5f610713826106d1565b61071d81856106db565b935061072d8185602086016106eb565b610736816106f9565b840191505092915050565b5f6020820190508181035f8301526107598184610709565b905092915050565b5f819050919050565b61077381610761565b82525050565b5f60208201905061078c5f83018461076a565b92915050565b5f5ffd5b5f73ffffffffffffffffffffffffffffffffffffffff82169050919050565b5f6107bf82610796565b9050919050565b6107cf816107b5565b81146107d9575f5ffd5b50565b5f813590506107ea816107c6565b92915050565b6107f981610761565b8114610803575f5ffd5b50565b5f81359050610814816107f0565b92915050565b5f5f5f6060848603121561083157610830610792565b5b5f61083e868287016107dc565b935050602061084f868287016107dc565b925050604061086086828701610806565b9150509250925092565b5f8115159050919050565b61087e8161086a565b82525050565b5f6020820190506108975f830184610875565b92915050565b5f60ff82169050919050565b6108b28161089d565b82525050565b5f6020820190506108cb5f8301846108a9565b92915050565b5f602082840312156108e6576108e5610792565b5b5f6108f384828501610806565b91505092915050565b5f6020828403121561091157610910610792565b5b5f61091e848285016107dc565b91505092915050565b5f5f6040838503121561093d5761093c610792565b5b5f61094a858286016107dc565b925050602061095b85828601610806565b9150509250929050565b7f4e487b71000000000000000000000000000000000000000000000000000000005f52602260045260245ffd5b5f60028204905060018216806109a957607f821691505b6020821081036109bc576109bb610965565b5b50919050565b7f496e73756666696369656e742062616c616e63650000000000000000000000005f82015250565b5f6109f66014836106db565b9150610a01826109c2565b602082019050919050565b5f6020820190508181035f830152610a23816109ea565b9050919050565b7f4e487b71000000000000000000000000000000000000000000000000000000005f52601160045260245ffd5b5f610a6182610761565b9150610a6c83610761565b9250828203905081811115610a8457610a83610a2a565b5b92915050565b5f819050919050565b5f819050919050565b5f610ab6610ab1610aac84610a8a565b610a93565b610761565b9050919050565b610ac681610a9c565b82525050565b5f602082019050610adf5f830184610abd565b92915050565b5f610aef82610761565b9150610afa83610761565b9250828201905080821115610b1257610b11610a2a565b5b9291505056fea2646970667358221220346387a2eaa04bce1e2b4b8312a43546534c9a77e21087fb7824c7c3ce86f85764736f6c63430008230033","linkReferences":{}},"methodIdentifiers":{"balanceOf(address)":"70a08231","burn(uint256)":"42966c68","decimals()":"313ce567","name()":"06fdde03","symbol()":"95d89b41","totalSupply()":"18160ddd","transfer(address,uint256)":"a9059cbb","transferFrom(address,address,uint256)":"23b872dd"},"id":19}