{"abi":[{"type":"constructor","inputs":[],"stateMutability":"nonpayable"},{"type":"function","name":"allowance","inputs":[{"name":"","type":"address","internalType":"address"},{"name":"","type":"address","internalType":"address"}],"outputs":[{"name":"","type":"uint256","internalType":"uint256"}],"stateMutability":"view"},{"type":"function","name":"approve","inputs":[{"name":"_spender","type":"address","internalType":"address"},{"name":"_value","type":"uint256","internalType":"uint256"}],"outputs":[{"name":"","type":"bool","internalType":"bool"}],"stateMutability":"nonpayable"},{"type":"function","name":"balanceOf","inputs":[{"name":"","type":"address","internalType":"address"}],"outputs":[{"name":"","type":"uint256","internalType":"uint256"}],"stateMutability":"view"},{"type":"function","name":"burn","inputs":[{"name":"_amount","type":"uint256","internalType":"uint256"}],"outputs":[],"stateMutability":"nonpayable"},{"type":"function","name":"decimals","inputs":[],"outputs":[{"name":"","type":"uint8","internalType":"uint8"}],"stateMutability":"view"},{"type":"function","name":"mint","inputs":[{"name":"_to","type":"address","internalType":"address"},{"name":"_amount","type":"uint256","internalType":"uint256"}],"outputs":[],"stateMutability":"nonpayable"},{"type":"function","name":"name","inputs":[],"outputs":[{"name":"","type":"string","internalType":"string"}],"stateMutability":"view"},{"type":"function","name":"owner","inputs":[],"outputs":[{"name":"","type":"address","internalType":"address"}],"stateMutability":"view"},{"type":"function","name":"symbol","inputs":[],"outputs":[{"name":"","type":"string","internalType":"string"}],"stateMutability":"view"},{"type":"function","name":"totalSupply","inputs":[],"outputs":[{"name":"","type":"uint256","internalType":"uint256"}],"stateMutability":"view"},{"type":"function","name":"transfer","inputs":[{"name":"_to","type":"address","internalType":"address"},{"name":"_value","type":"uint256","internalType":"uint256"}],"outputs":[{"name":"","type":"bool","internalType":"bool"}],"stateMutability":"nonpayable"},{"type":"function","name":"transferFrom","inputs":[{"name":"_from","type":"address","internalType":"address"},{"name":"_to","type":"address","internalType":"address"},{"name":"_value","type":"uint256","internalType":"uint256"}],"outputs":[{"name":"","type":"bool","internalType":"bool"}],"stateMutability":"nonpayable"},{"type":"event","name":"Approval","inputs":[{"name":"owner","type":"address","indexed":true,"internalType":"address"},{"name":"spender","type":"address","indexed":true,"internalType":"address"},{"name":"value","type":"uint256","indexed":false,"internalType":"uint256"}],"anonymous":false},{"type":"event","name":"Burn","inputs":[{"name":"from","type":"address","indexed":true,"internalType":"address"},{"name":"amount","type":"uint256","indexed":false,"internalType":"uint256"}],"anonymous":false},{"type":"event","name":"Mint","inputs":[{"name":"to","type":"address","indexed":true,"internalType":"address"},{"name":"amount","type":"uint256","indexed":false,"internalType":"uint256"}],"anonymous":false},{"type":"event","name":"Transfer","inputs":[{"name":"from","type":"address","indexed":true,"internalType":"address"},{"name":"to","type":"address","indexed":true,"internalType":"address"},{"name":"value","type":"uint256","indexed":false,"internalType":"uint256"}],"anonymous":false}],"bytecode":{"object":"0x60806040526040518060400160405280600d81526020017f50726976617465205352433230000000000000000000000000000000000000008152505f90816100479190610347565b506040518060400160405280600581526020017f50525632300000000000000000000000000000000000000000000000000000008152506001908161008c9190610347565b50601260025f6101000a81548160ff021916908360ff1602179055503480156100b3575f5ffd5b503360045f6101000a81548173ffffffffffffffffffffffffffffffffffffffff021916908373ffffffffffffffffffffffffffffffffffffffff160217905550610416565b5f81519050919050565b7f4e487b71000000000000000000000000000000000000000000000000000000005f52604160045260245ffd5b7f4e487b71000000000000000000000000000000000000000000000000000000005f52602260045260245ffd5b5f600282049050600182168061017457607f821691505b60208210810361018757610186610130565b5b50919050565b5f819050815f5260205f209050919050565b5f6020601f8301049050919050565b5f82821b905092915050565b5f600883026101e97fffffffffffffffffffffffffffffffffffffffffffffffffffffffffffffffff826101ae565b6101f386836101ae565b95508019841693508086168417925050509392505050565b5f819050919050565b5f819050919050565b5f61023761023261022d8461020b565b610214565b61020b565b9050919050565b5f819050919050565b6102508361021d565b61026461025c8261023e565b8484546101ba565b825550505050565b5f5f905090565b61027b61026c565b610286818484610247565b505050565b5f5b828110156102ac576102a15f828401610273565b60018101905061028d565b505050565b601f8211156102ff57828211156102fe576102cb8161018d565b6102d48361019f565b6102dd8561019f565b60208610156102ea575f90505b8083016102f98284038261028b565b505050505b5b505050565b5f82821c905092915050565b5f61031f5f1984600802610304565b1980831691505092915050565b5f6103378383610310565b9150826002028217905092915050565b610350826100f9565b67ffffffffffffffff81111561036957610368610103565b5b610373825461015d565b61037e8282856102b1565b5f60209050601f8311600181146103af575f841561039d578287015190505b6103a7858261032c565b86555061040e565b601f1984166103bd8661018d565b5f5b828110156103e4578489015182556001820191506020850194506020810190506103bf565b8683101561040157848901516103fd601f891682610310565b8355505b6001600288020188555050505b505050505050565b6112f7806104235f395ff3fe608060405234801561000f575f5ffd5b50600436106100b2575f3560e01c806342966c681161006f57806342966c681461018c57806370a08231146101a85780638da5cb5b146101d857806395d89b41146101f6578063a9059cbb14610214578063dd62ed3e14610244576100b2565b806306fdde03146100b6578063095ea7b3146100d457806318160ddd1461010457806323b872dd14610122578063313ce5671461015257806340c10f1914610170575b5f5ffd5b6100be610274565b6040516100cb9190610c8b565b60405180910390f35b6100ee60048036038101906100e99190610d3c565b6102ff565b6040516100fb9190610d94565b60405180910390f35b61010c6103ec565b6040516101199190610dbc565b60405180910390f35b61013c60048036038101906101379190610dd5565b6103f2565b6040516101499190610d94565b60405180910390f35b61015a610551565b6040516101679190610e40565b60405180910390f35b61018a60048036038101906101859190610d3c565b610563565b005b6101a660048036038101906101a19190610e59565b610782565b005b6101c260048036038101906101bd9190610e84565b610922565b6040516101cf9190610dbc565b60405180910390f35b6101e0610937565b6040516101ed9190610ebe565b60405180910390f35b6101fe61095c565b60405161020b9190610c8b565b60405180910390f35b61022e60048036038101906102299190610d3c565b6109e8565b60405161023b9190610d94565b60405180910390f35b61025e60048036038101906102599190610ed7565b6109fe565b60405161026b9190610dbc565b60405180910390f35b5f805461028090610f42565b80601f01602080910402602001604051908101604052809291908181526020018280546102ac90610f42565b80156102f75780601f106102ce576101008083540402835291602001916102f7565b820191905f5260205f20905b8154815290600101906020018083116102da57829003601f168201915b505050505081565b5f8160065f3373ffffffffffffffffffffffffffffffffffffffff1673ffffffffffffffffffffffffffffffffffffffff1681526020019081526020015f205f8573ffffffffffffffffffffffffffffffffffffffff1673ffffffffffffffffffffffffffffffffffffffff1681526020019081526020015f20819055508273ffffffffffffffffffffffffffffffffffffffff163373ffffffffffffffffffffffffffffffffffffffff167f8c5be1e5ebec7d5bd14f71427d1e84f3dd0314c0f7b2291e5b200ac8c7c3b925846040516103da9190610dbc565b60405180910390a36001905092915050565b60035481565b5f5f60065f8673ffffffffffffffffffffffffffffffffffffffff1673ffffffffffffffffffffffffffffffffffffffff1681526020019081526020015f205f3373ffffffffffffffffffffffffffffffffffffffff1673ffffffffffffffffffffffffffffffffffffffff1681526020019081526020015f20549050828110156104b2576040517f08c379a00000000000000000000000000000000000000000000000000000000081526004016104a990610fbc565b60405180910390fd5b82816104be9190611007565b60065f8773ffffffffffffffffffffffffffffffffffffffff1673ffffffffffffffffffffffffffffffffffffffff1681526020019081526020015f205f3373ffffffffffffffffffffffffffffffffffffffff1673ffffffffffffffffffffffffffffffffffffffff1681526020019081526020015f2081905550610545858585610a1e565b60019150509392505050565b60025f9054906101000a900460ff1681565b60045f9054906101000a900473ffffffffffffffffffffffffffffffffffffffff1673ffffffffffffffffffffffffffffffffffffffff163373ffffffffffffffffffffffffffffffffffffffff16146105f2576040517f08c379a00000000000000000000000000000000000000000000000000000000081526004016105e990611084565b60405180910390fd5b5f73ffffffffffffffffffffffffffffffffffffffff168273ffffffffffffffffffffffffffffffffffffffff1603610660576040517f08c379a0000000000000000000000000000000000000000000000000000000008152600401610657906110ec565b60405180910390fd5b8060035f828254610671919061110a565b925050819055508060055f8473ffffffffffffffffffffffffffffffffffffffff1673ffffffffffffffffffffffffffffffffffffffff1681526020019081526020015f205f8282546106c4919061110a565b925050819055508173ffffffffffffffffffffffffffffffffffffffff167f0f6798a560793a54c3bcfe86a93cde1e73087d944c0ea20544137d4121396885826040516107119190610dbc565b60405180910390a28173ffffffffffffffffffffffffffffffffffffffff165f73ffffffffffffffffffffffffffffffffffffffff167fddf252ad1be2c89b69c2b068fc378daa952ba7f163c4a11628f55a4df523b3ef836040516107769190610dbc565b60405180910390a35050565b5f60055f3373ffffffffffffffffffffffffffffffffffffffff1673ffffffffffffffffffffffffffffffffffffffff1681526020019081526020015f2054905081811015610806576040517f08c379a00000000000000000000000000000000000000000000000000000000081526004016107fd906111ad565b60405180910390fd5b81816108129190611007565b60055f3373ffffffffffffffffffffffffffffffffffffffff1673ffffffffffffffffffffffffffffffffffffffff1681526020019081526020015f20819055508160035f8282546108649190611007565b925050819055503373ffffffffffffffffffffffffffffffffffffffff167fcc16f5dbb4873280815c1ee09dbd06736cffcc184412cf7a71a0fdb75d397ca5836040516108b19190610dbc565b60405180910390a25f73ffffffffffffffffffffffffffffffffffffffff163373ffffffffffffffffffffffffffffffffffffffff167fddf252ad1be2c89b69c2b068fc378daa952ba7f163c4a11628f55a4df523b3ef846040516109169190610dbc565b60405180910390a35050565b6005602052805f5260405f205f915090505481565b60045f9054906101000a900473ffffffffffffffffffffffffffffffffffffffff1681565b6001805461096990610f42565b80601f016020809104026020016040519081016040528092919081815260200182805461099590610f42565b80156109e05780601f106109b7576101008083540402835291602001916109e0565b820191905f5260205f20905b8154815290600101906020018083116109c357829003601f168201915b505050505081565b5f6109f4338484610a1e565b6001905092915050565b6006602052815f5260405f20602052805f5260405f205f91509150505481565b5f73ffffffffffffffffffffffffffffffffffffffff168273ffffffffffffffffffffffffffffffffffffffff1603610a8c576040517f08c379a0000000000000000000000000000000000000000000000000000000008152600401610a8390611215565b60405180910390fd5b5f60055f8573ffffffffffffffffffffffffffffffffffffffff1673ffffffffffffffffffffffffffffffffffffffff1681526020019081526020015f2054905081811015610b10576040517f08c379a0000000000000000000000000000000000000000000000000000000008152600401610b07906112a3565b60405180910390fd5b8181610b1c9190611007565b60055f8673ffffffffffffffffffffffffffffffffffffffff1673ffffffffffffffffffffffffffffffffffffffff1681526020019081526020015f20819055508160055f8573ffffffffffffffffffffffffffffffffffffffff1673ffffffffffffffffffffffffffffffffffffffff1681526020019081526020015f205f828254610ba9919061110a565b925050819055508273ffffffffffffffffffffffffffffffffffffffff168473ffffffffffffffffffffffffffffffffffffffff167fddf252ad1be2c89b69c2b068fc378daa952ba7f163c4a11628f55a4df523b3ef84604051610c0d9190610dbc565b60405180910390a350505050565b5f81519050919050565b5f82825260208201905092915050565b8281835e5f83830152505050565b5f601f19601f8301169050919050565b5f610c5d82610c1b565b610c678185610c25565b9350610c77818560208601610c35565b610c8081610c43565b840191505092915050565b5f6020820190508181035f830152610ca38184610c53565b905092915050565b5f5ffd5b5f73ffffffffffffffffffffffffffffffffffffffff82169050919050565b5f610cd882610caf565b9050919050565b610ce881610cce565b8114610cf2575f5ffd5b50565b5f81359050610d0381610cdf565b92915050565b5f819050919050565b610d1b81610d09565b8114610d25575f5ffd5b50565b5f81359050610d3681610d12565b92915050565b5f5f60408385031215610d5257610d51610cab565b5b5f610d5f85828601610cf5565b9250506020610d7085828601610d28565b9150509250929050565b5f8115159050919050565b610d8e81610d7a565b82525050565b5f602082019050610da75f830184610d85565b92915050565b610db681610d09565b82525050565b5f602082019050610dcf5f830184610dad565b92915050565b5f5f5f60608486031215610dec57610deb610cab565b5b5f610df986828701610cf5565b9350506020610e0a86828701610cf5565b9250506040610e1b86828701610d28565b9150509250925092565b5f60ff82169050919050565b610e3a81610e25565b82525050565b5f602082019050610e535f830184610e31565b92915050565b5f60208284031215610e6e57610e6d610cab565b5b5f610e7b84828501610d28565b91505092915050565b5f60208284031215610e9957610e98610cab565b5b5f610ea684828501610cf5565b91505092915050565b610eb881610cce565b82525050565b5f602082019050610ed15f830184610eaf565b92915050565b5f5f60408385031215610eed57610eec610cab565b5b5f610efa85828601610cf5565b9250506020610f0b85828601610cf5565b9150509250929050565b7f4e487b71000000000000000000000000000000000000000000000000000000005f52602260045260245ffd5b5f6002820490506001821680610f5957607f821691505b602082108103610f6c57610f6b610f15565b5b50919050565b7f45524332303a20696e73756666696369656e7420616c6c6f77616e63650000005f82015250565b5f610fa6601d83610c25565b9150610fb182610f72565b602082019050919050565b5f6020820190508181035f830152610fd381610f9a565b9050919050565b7f4e487b71000000000000000000000000000000000000000000000000000000005f52601160045260245ffd5b5f61101182610d09565b915061101c83610d09565b925082820390508181111561103457611033610fda565b5b92915050565b7f4f6e6c79206f776e65722063616e2063616c6c000000000000000000000000005f82015250565b5f61106e601383610c25565b91506110798261103a565b602082019050919050565b5f6020820190508181035f83015261109b81611062565b9050919050565b7f45524332303a206d696e7420746f207a65726f206164647265737300000000005f82015250565b5f6110d6601b83610c25565b91506110e1826110a2565b602082019050919050565b5f6020820190508181035f830152611103816110ca565b9050919050565b5f61111482610d09565b915061111f83610d09565b925082820190508082111561113757611136610fda565b5b92915050565b7f45524332303a206275726e20616d6f756e7420657863656564732062616c616e5f8201527f6365000000000000000000000000000000000000000000000000000000000000602082015250565b5f611197602283610c25565b91506111a28261113d565b604082019050919050565b5f6020820190508181035f8301526111c48161118b565b9050919050565b7f45524332303a207472616e7366657220746f207a65726f2061646472657373005f82015250565b5f6111ff601f83610c25565b915061120a826111cb565b602082019050919050565b5f6020820190508181035f83015261122c816111f3565b9050919050565b7f45524332303a207472616e7366657220616d6f756e74206578636565647320625f8201527f616c616e63650000000000000000000000000000000000000000000000000000602082015250565b5f61128d602683610c25565b915061129882611233565b604082019050919050565b5f6020820190508181035f8301526112ba81611281565b905091905056fea2646970667358221220b34427a33e798277cb00838edab45db4805ff62d6ce835d15a6f93c0ca8e6cac64736f6c63430008230033","linkReferences":{}},"methodIdentifiers":{"allowance(address,address)":"dd62ed3e","approve(address,uint256)":"095ea7b3","balanceOf(address)":"70a08231","burn(uint256)":"42966c68","decimals()":"313ce567","mint(address,uint256)":"40c10f19","name()":"06fdde03","owner()":"8da5cb5b","symbol()":"95d89b41","totalSupply()":"18160ddd","transfer(address,uint256)":"a9059cbb","transferFrom(address,address,uint256)":"23b872dd"},"id":0}