{"abi":[{"type":"function","name":"addSecret","inputs":[{"name":"_secret","type":"string","internalType":"string"}],"outputs":[],"stateMutability":"nonpayable"},{"type":"function","name":"hit","inputs":[],"outputs":[],"stateMutability":"nonpayable"},{"type":"function","name":"hitCount","inputs":[],"outputs":[{"name":"","type":"uint256","internalType":"uint256"}],"stateMutability":"view"},{"type":"function","name":"reset","inputs":[],"outputs":[],"stateMutability":"nonpayable"},{"type":"function","name":"rewardCount","inputs":[],"outputs":[{"name":"","type":"uint256","internalType":"uint256"}],"stateMutability":"view"},{"type":"function","name":"rob","inputs":[],"outputs":[],"stateMutability":"nonpayable"},{"type":"function","name":"robAndReward","inputs":[],"outputs":[],"stateMutability":"nonpayable"},{"type":"function","name":"robCount","inputs":[],"outputs":[{"name":"","type":"uint256","internalType":"uint256"}],"stateMutability":"view"},{"type":"function","name":"secret","inputs":[],"outputs":[{"name":"","type":"string","internalType":"string"}],"stateMutability":"view"},{"type":"function","name":"stats","inputs":[],"outputs":[{"name":"","type":"uint256","internalType":"uint256"}],"stateMutability":"view"}],"bytecode":{"object":"0x6080604052348015600e575f5ffd5b506108d88061001c5f395ff3fe608060405234801561000f575f5ffd5b506004361061009c575f3560e01c80637e8aafe4116100645780637e8aafe41461010c578063d1efd30d14610116578063d3c184f614610134578063d80528ae14610152578063d826f88f146101705761009c565b8063131e5eff146100a057806319e96ec6146100bc5780632ae3594a146100c6578063582598a7146100d057806379085425146100ee575b5f5ffd5b6100ba60048036038101906100b59190610355565b61017a565b005b6100c461018f565b005b6100ce6101aa565b005b6100d86101c4565b6040516100e591906103b8565b60405180910390f35b6100f66101ca565b60405161010391906103b8565b60405180910390f35b6101146101d0565b005b61011e610204565b60405161012b9190610441565b60405180910390f35b61013c61028f565b60405161014991906103b8565b60405180910390f35b61015a610295565b60405161016791906103b8565b60405180910390f35b6101786102b8565b005b81815f918261018a9291906106a6565b505050565b600160025f8282546101a191906107a0565b92505081905550565b6001805f8282546101bb91906107a0565b92505081905550565b60015481565b60035481565b600160025f8282546101e291906107a0565b92505081905550600160035f8282546101fb91906107a0565b92505081905550565b5f8054610210906104c5565b80601f016020809104026020016040519081016040528092919081815260200182805461023c906104c5565b80156102875780601f1061025e57610100808354040283529160200191610287565b820191905f5260205f20905b81548152906001019060200180831161026a57829003601f168201915b505050505081565b60025481565b5f6003546002546001546102a991906107a0565b6102b391906107a0565b905090565b60405180602001604052805f8152505f90816102d491906107d3565b505f6001819055505f6002819055505f600381905550565b5f5ffd5b5f5ffd5b5f5ffd5b5f5ffd5b5f5ffd5b5f5f83601f840112610315576103146102f4565b5b8235905067ffffffffffffffff811115610332576103316102f8565b5b60208301915083600182028301111561034e5761034d6102fc565b5b9250929050565b5f5f6020838503121561036b5761036a6102ec565b5b5f83013567ffffffffffffffff811115610388576103876102f0565b5b61039485828601610300565b92509250509250929050565b5f819050919050565b6103b2816103a0565b82525050565b5f6020820190506103cb5f8301846103a9565b92915050565b5f81519050919050565b5f82825260208201905092915050565b8281835e5f83830152505050565b5f601f19601f8301169050919050565b5f610413826103d1565b61041d81856103db565b935061042d8185602086016103eb565b610436816103f9565b840191505092915050565b5f6020820190508181035f8301526104598184610409565b905092915050565b5f82905092915050565b7f4e487b71000000000000000000000000000000000000000000000000000000005f52604160045260245ffd5b7f4e487b71000000000000000000000000000000000000000000000000000000005f52602260045260245ffd5b5f60028204905060018216806104dc57607f821691505b6020821081036104ef576104ee610498565b5b50919050565b5f819050815f5260205f209050919050565b5f6020601f8301049050919050565b5f82821b905092915050565b5f600883026105517fffffffffffffffffffffffffffffffffffffffffffffffffffffffffffffffff82610516565b61055b8683610516565b95508019841693508086168417925050509392505050565b5f819050919050565b5f61059661059161058c846103a0565b610573565b6103a0565b9050919050565b5f819050919050565b6105af8361057c565b6105c36105bb8261059d565b848454610522565b825550505050565b5f5f905090565b6105da6105cb565b6105e58184846105a6565b505050565b5f5b8281101561060b576106005f8284016105d2565b6001810190506105ec565b505050565b601f82111561065e578282111561065d5761062a816104f5565b61063383610507565b61063c85610507565b6020861015610649575f90505b808301610658828403826105ea565b505050505b5b505050565b5f82821c905092915050565b5f61067e5f1984600802610663565b1980831691505092915050565b5f610696838361066f565b9150826002028217905092915050565b6106b08383610461565b67ffffffffffffffff8111156106c9576106c861046b565b5b6106d382546104c5565b6106de828285610610565b5f601f83116001811461070b575f84156106f9578287013590505b610703858261068b565b86555061076a565b601f198416610719866104f5565b5f5b828110156107405784890135825560018201915060208501945060208101905061071b565b8683101561075d5784890135610759601f89168261066f565b8355505b6001600288020188555050505b50505050505050565b7f4e487b71000000000000000000000000000000000000000000000000000000005f52601160045260245ffd5b5f6107aa826103a0565b91506107b5836103a0565b92508282019050808211156107cd576107cc610773565b5b92915050565b6107dc826103d1565b67ffffffffffffffff8111156107f5576107f461046b565b5b6107ff82546104c5565b61080a828285610610565b5f60209050601f83116001811461083b575f8415610829578287015190505b610833858261068b565b86555061089a565b601f198416610849866104f5565b5f5b828110156108705784890151825560018201915060208501945060208101905061084b565b8683101561088d5784890151610889601f89168261066f565b8355505b6001600288020188555050505b50505050505056fea26469706673582212209f33f663e7fe59250c0875decc512f8a01a86da8cfcadc785f20eed605f8e94d64736f6c63430008230033","linkReferences":{}},"methodIdentifiers":{"addSecret(string)":"131e5eff","hit()":"2ae3594a","hitCount()":"582598a7","reset()":"d826f88f","rewardCount()":"79085425","rob()":"19e96ec6","robAndReward()":"7e8aafe4","robCount()":"d3c184f6","secret()":"d1efd30d","stats()":"d80528ae"},"id":0}