{"abi":[{"type":"constructor","inputs":[{"name":"_initialStamina","type":"uint256","internalType":"uint256"},{"name":"_src20Token","type":"address","internalType":"address"}],"stateMutability":"nonpayable"},{"type":"function","name":"addSecret","inputs":[{"name":"_secret","type":"string","internalType":"string"}],"outputs":[],"stateMutability":"nonpayable"},{"type":"function","name":"clownStamina","inputs":[],"outputs":[{"name":"","type":"uint256","internalType":"uint256"}],"stateMutability":"view"},{"type":"function","name":"hit","inputs":[],"outputs":[],"stateMutability":"nonpayable"},{"type":"function","name":"hitsPerRound","inputs":[{"name":"","type":"uint256","internalType":"uint256"},{"name":"","type":"address","internalType":"address"}],"outputs":[{"name":"","type":"uint256","internalType":"uint256"}],"stateMutability":"view"},{"type":"function","name":"initialClownStamina","inputs":[],"outputs":[{"name":"","type":"uint256","internalType":"uint256"}],"stateMutability":"view"},{"type":"function","name":"reset","inputs":[],"outputs":[],"stateMutability":"nonpayable"},{"type":"function","name":"rob","inputs":[],"outputs":[{"name":"secret","type":"bytes","internalType":"bytes"}],"stateMutability":"view"},{"type":"function","name":"robAndReward","inputs":[],"outputs":[{"name":"secret","type":"bytes","internalType":"bytes"}],"stateMutability":"nonpayable"},{"type":"function","name":"round","inputs":[],"outputs":[{"name":"","type":"uint256","internalType":"uint256"}],"stateMutability":"view"},{"type":"function","name":"secretsCount","inputs":[],"outputs":[{"name":"","type":"uint256","internalType":"uint256"}],"stateMutability":"view"},{"type":"function","name":"src20Token","inputs":[],"outputs":[{"name":"","type":"address","internalType":"address"}],"stateMutability":"view"},{"type":"event","name":"Hit","inputs":[{"name":"player","type":"address","indexed":true,"internalType":"address"},{"name":"staminaAfterHit","type":"uint256","indexed":false,"internalType":"uint256"}],"anonymous":false},{"type":"event","name":"Reset","inputs":[{"name":"newStamina","type":"uint256","indexed":false,"internalType":"uint256"},{"name":"newRound","type":"uint256","indexed":false,"internalType":"uint256"}],"anonymous":false}],"bytecode":{"object":"0x60c060405234801561000f575f5ffd5b5060405161199b38038061199b83398181016040528101906100319190610155565b5f8211610073576040517f08c379a000000000000000000000000000000000000000000000000000000000815260040161006a906101ed565b60405180910390fd5b81608081815250508073ffffffffffffffffffffffffffffffffffffffff1660a08173ffffffffffffffffffffffffffffffffffffffff1681525050815f819055506001600481905550505061020b565b5f5ffd5b5f819050919050565b6100da816100c8565b81146100e4575f5ffd5b50565b5f815190506100f5816100d1565b92915050565b5f73ffffffffffffffffffffffffffffffffffffffff82169050919050565b5f610124826100fb565b9050919050565b6101348161011a565b811461013e575f5ffd5b50565b5f8151905061014f8161012b565b92915050565b5f5f6040838503121561016b5761016a6100c4565b5b5f610178858286016100e7565b925050602061018985828601610141565b9150509250929050565b5f82825260208201905092915050565b7f5374616d696e61206d757374206265203e3000000000000000000000000000005f82015250565b5f6101d7601283610193565b91506101e2826101a3565b602082019050919050565b5f6020820190508181035f830152610204816101cb565b9050919050565b60805160a0516117536102485f395f8181610673015281816107b50152818161089b01526109ac01525f81816105580152610a1301526117535ff3fe608060405234801561000f575f5ffd5b50600436106100a7575f3560e01c80635ba8ed3d1161006f5780635ba8ed3d1461012b5780637e8aafe4146101495780638045df35146101675780639f7b270214610185578063a3f54956146101b5578063d826f88f146101d3576100a7565b8063131e5eff146100ab578063146ca531146100c757806319e96ec6146100e55780632ae3594a1461010357806344216c781461010d575b5f5ffd5b6100c560048036038101906100c09190610c37565b6101dd565b005b6100cf6102c1565b6040516100dc9190610c9a565b60405180910390f35b6100ed6102c7565b6040516100fa9190610d23565b60405180910390f35b61010b610445565b005b610115610556565b6040516101229190610c9a565b60405180910390f35b61013361057a565b6040516101409190610c9a565b60405180910390f35b610151610580565b60405161015e9190610d23565b60405180910390f35b61016f610985565b60405161017c9190610c9a565b60405180910390f35b61019f600480360381019061019a9190610dc7565b61098a565b6040516101ac9190610c9a565b60405180910390f35b6101bd6109aa565b6040516101ca9190610e14565b60405180910390f35b6101db6109ce565b005b5f82828080601f0160208091040260200160405190810160405280939291908181526020018383808284375f81840152601f19601f8201169050808301925050505050505090508060015f60025481526020019081526020015f209081610244919061106a565b50600160025f8282546102579190611166565b92505081905550600160025403610274575f60038190b1506102bc565b5f600254424460025460405160200161028f939291906111b9565b604051602081830303815290604052805190602001205f1c6102b19190611222565b90508060038190b150505b505050565b60045481565b60605f5f541461030c576040517f08c379a0000000000000000000000000000000000000000000000000000000008152600401610303906112ac565b60405180910390fd5b5f60055f60045481526020019081526020015f205f3373ffffffffffffffffffffffffffffffffffffffff1673ffffffffffffffffffffffffffffffffffffffff1681526020019081526020015f20541161039c576040517f08c379a000000000000000000000000000000000000000000000000000000000815260040161039390611314565b60405180910390fd5b5f6003b090505f60015f8381526020019081526020015f2080b06103bf90610e91565b80601f01602080910402602001604051908101604052809291908181526020018280b06103eb90610e91565b80156104365780601f1061040d576101008083b0040283529160200191610436565b820191905f5260205f20905b81b08152906001019060200180831161041957829003601f168201915b50505050509050809250505090565b5f5f5411610488576040517f08c379a000000000000000000000000000000000000000000000000000000000815260040161047f9061137c565b60405180910390fd5b60015f5f828254610499919061139a565b92505081905550600160055f60045481526020019081526020015f205f3373ffffffffffffffffffffffffffffffffffffffff1673ffffffffffffffffffffffffffffffffffffffff1681526020019081526020015f205f8282546104fe9190611166565b925050819055503373ffffffffffffffffffffffffffffffffffffffff167ff66d371981005bc780225b328d88a7508d2cd813d875f2ca8ebb10cb405e9dbb5f5460405161054c9190610c9a565b60405180910390a2565b7f000000000000000000000000000000000000000000000000000000000000000081565b60025481565b60605f5f54146105c5576040517f08c379a00000000000000000000000000000000000000000000000000000000081526004016105bc906112ac565b60405180910390fd5b5f60055f60045481526020019081526020015f205f3373ffffffffffffffffffffffffffffffffffffffff1673ffffffffffffffffffffffffffffffffffffffff1681526020019081526020015f205411610655576040517f08c379a000000000000000000000000000000000000000000000000000000000815260040161064c90611314565b60405180910390fd5b61070e6040518060600160405280602481526020016116d4602491397f000000000000000000000000000000000000000000000000000000000000000073ffffffffffffffffffffffffffffffffffffffff166370a08231306040518263ffffffff1660e01b81526004016106ca9190610e14565b602060405180830381865afa1580156106e5573d5f5f3e3d5ffd5b505050506040513d601f19601f8201168201806040525081019061070991906113e1565b610ae4565b5f6003b090505f60015f8381526020019081526020015f2080b061073190610e91565b80601f01602080910402602001604051908101604052809291908181526020018280b061075d90610e91565b80156107a85780601f1061077f576101008083b00402835291602001916107a8565b820191905f5260205f20905b81b08152906001019060200180831161078b57829003601f168201915b505050505090508092505f7f000000000000000000000000000000000000000000000000000000000000000073ffffffffffffffffffffffffffffffffffffffff166370a08231306040518263ffffffff1660e01b815260040161080c9190610e14565b602060405180830381865afa158015610827573d5f5f3e3d5ffd5b505050506040513d601f19601f8201168201806040525081019061084b91906113e1565b9050670de0b6b3a7640000811015610898576040517f08c379a000000000000000000000000000000000000000000000000000000000815260040161088f9061147c565b60405180910390fd5b5f7f000000000000000000000000000000000000000000000000000000000000000073ffffffffffffffffffffffffffffffffffffffff1663a9059cbb33670de0b6b3a76400006040518363ffffffff1660e01b81526004016108fc9291906114d3565b6020604051808303815f875af1158015610918573d5f5f3e3d5ffd5b505050506040513d601f19601f8201168201806040525081019061093c919061152f565b90508061097e576040517f08c379a0000000000000000000000000000000000000000000000000000000008152600401610975906115a4565b60405180910390fd5b5050505090565b5f5481565b6005602052815f5260405f20602052805f5260405f205f91509150505481565b7f000000000000000000000000000000000000000000000000000000000000000081565b5f5f5414610a11576040517f08c379a0000000000000000000000000000000000000000000000000000000008152600401610a08906112ac565b60405180910390fd5b7f00000000000000000000000000000000000000000000000000000000000000005f81905550600160045f828254610a499190611166565b925050819055505f6002541115610aa6575f6002544244600454600254604051602001610a7994939291906115c2565b604051602081830303815290604052805190602001205f1c610a9b9190611222565b90508060038190b150505b7f5ae2e83411b15aef3c1609c37f90fc7c912666cfac3ba72a9ba900a39c5bfaa35f54600454604051610ada92919061160f565b60405180910390a1565b610b7c8282604051602401610afa929190611678565b6040516020818303038152906040527fb60e72cc000000000000000000000000000000000000000000000000000000007bffffffffffffffffffffffffffffffffffffffffffffffffffffffff19166020820180517bffffffffffffffffffffffffffffffffffffffffffffffffffffffff8381831617835250505050610b80565b5050565b610b9781610b8f610b9a610bb9565b63ffffffff16565b50565b5f6a636f6e736f6c652e6c6f6790505f5f835160208501845afa505050565b610bc4819050919050565b610bcc6116a6565b565b5f5ffd5b5f5ffd5b5f5ffd5b5f5ffd5b5f5ffd5b5f5f83601f840112610bf757610bf6610bd6565b5b8235905067ffffffffffffffff811115610c1457610c13610bda565b5b602083019150836001820283011115610c3057610c2f610bde565b5b9250929050565b5f5f60208385031215610c4d57610c4c610bce565b5b5f83013567ffffffffffffffff811115610c6a57610c69610bd2565b5b610c7685828601610be2565b92509250509250929050565b5f819050919050565b610c9481610c82565b82525050565b5f602082019050610cad5f830184610c8b565b92915050565b5f81519050919050565b5f82825260208201905092915050565b8281835e5f83830152505050565b5f601f19601f8301169050919050565b5f610cf582610cb3565b610cff8185610cbd565b9350610d0f818560208601610ccd565b610d1881610cdb565b840191505092915050565b5f6020820190508181035f830152610d3b8184610ceb565b905092915050565b610d4c81610c82565b8114610d56575f5ffd5b50565b5f81359050610d6781610d43565b92915050565b5f73ffffffffffffffffffffffffffffffffffffffff82169050919050565b5f610d9682610d6d565b9050919050565b610da681610d8c565b8114610db0575f5ffd5b50565b5f81359050610dc181610d9d565b92915050565b5f5f60408385031215610ddd57610ddc610bce565b5b5f610dea85828601610d59565b9250506020610dfb85828601610db3565b9150509250929050565b610e0e81610d8c565b82525050565b5f602082019050610e275f830184610e05565b92915050565b5f81519050919050565b7f4e487b71000000000000000000000000000000000000000000000000000000005f52604160045260245ffd5b7f4e487b71000000000000000000000000000000000000000000000000000000005f52602260045260245ffd5b5f6002820490506001821680610ea857607f821691505b602082108103610ebb57610eba610e64565b5b50919050565b5f819050815f5260205f209050919050565b5f6020601f8301049050919050565b5f82821b905092915050565b5f60088302610f1d7fffffffffffffffffffffffffffffffffffffffffffffffffffffffffffffffff82610ee2565b610f278683610ee2565b95508019841693508086168417925050509392505050565b5f819050919050565b5f819050919050565b5f610f6b610f66610f6184610f3f565b610f48565b610f3f565b9050919050565b5f819050919050565b610f8483610f51565b610f98610f9082610f72565b8484b0610eee565b82b150505050565b5f5f905090565b610faf610fa0565b610fba818484610f7b565b505050565b5b81811015610fdd57610fd25f82610fa7565b600181019050610fc0565b5050565b601f82111561102257610ff381610ec1565b610ffc84610ed3565b8101602085101561100b578190505b61101f61101785610ed3565b830182610fbf565b50505b505050565b5f82821c905092915050565b5f6110425f1984600802611027565b1980831691505092915050565b5f61105a8383611033565b9150826002028217905092915050565b61107382610e2d565b67ffffffffffffffff81111561108c5761108b610e37565b5b61109682b0610e91565b6110a1828285610fe1565b5f60209050601f8311600181146110d2575f84156110c0578287015190505b6110ca858261104f565b86b150611131565b601f1984166110e086610ec1565b5f5b82811015611107578489015182b16001820191506020850194506020810190506110e2565b868310156111245784890151611120601f891682611033565b83b1505b6001600288020188b15050505b505050505050565b7f4e487b71000000000000000000000000000000000000000000000000000000005f52601160045260245ffd5b5f61117082610c82565b915061117b83610c82565b925082820190508082111561119357611192611139565b5b92915050565b5f819050919050565b6111b36111ae82610c82565b611199565b82525050565b5f6111c482866111a2565b6020820191506111d482856111a2565b6020820191506111e482846111a2565b602082019150819050949350505050565b7f4e487b71000000000000000000000000000000000000000000000000000000005f52601260045260245ffd5b5f61122c82610c82565b915061123783610c82565b925082611247576112466111f5565b5b828206905092915050565b5f82825260208201905092915050565b7f436c6f776e207374696c6c207374616e64696e670000000000000000000000005f82015250565b5f611296601483611252565b91506112a182611262565b602082019050919050565b5f6020820190508181035f8301526112c38161128a565b9050919050565b7f4e6f74206120636f6e7472696275746f720000000000000000000000000000005f82015250565b5f6112fe601183611252565b9150611309826112ca565b602082019050919050565b5f6020820190508181035f83015261132b816112f2565b9050919050565b7f436c6f776e20616c726561647920646f776e00000000000000000000000000005f82015250565b5f611366601283611252565b915061137182611332565b602082019050919050565b5f6020820190508181035f8301526113938161135a565b9050919050565b5f6113a482610c82565b91506113af83610c82565b92508282039050818111156113c7576113c6611139565b5b92915050565b5f815190506113db81610d43565b92915050565b5f602082840312156113f6576113f5610bce565b5b5f611403848285016113cd565b91505092915050565b7f496e73756666696369656e7420746f6b656e2062616c616e636520696e20636f5f8201527f6e74726163740000000000000000000000000000000000000000000000000000602082015250565b5f611466602683611252565b91506114718261140c565b604082019050919050565b5f6020820190508181035f8301526114938161145a565b9050919050565b5f819050919050565b5f6114bd6114b86114b38461149a565b610f48565b610c82565b9050919050565b6114cd816114a3565b82525050565b5f6040820190506114e65f830185610e05565b6114f360208301846114c4565b9392505050565b5f8115159050919050565b61150e816114fa565b8114611518575f5ffd5b50565b5f8151905061152981611505565b92915050565b5f6020828403121561154457611543610bce565b5b5f6115518482850161151b565b91505092915050565b7f526577617264207472616e73666572206661696c6564000000000000000000005f82015250565b5f61158e601683611252565b91506115998261155a565b602082019050919050565b5f6020820190508181035f8301526115bb81611582565b9050919050565b5f6115cd82876111a2565b6020820191506115dd82866111a2565b6020820191506115ed82856111a2565b6020820191506115fd82846111a2565b60208201915081905095945050505050565b5f6040820190506116225f830185610c8b565b61162f6020830184610c8b565b9392505050565b5f81519050919050565b5f61164a82611636565b6116548185611252565b9350611664818560208601610ccd565b61166d81610cdb565b840191505092915050565b5f6040820190508181035f8301526116908185611640565b905061169f6020830184610c8b565b9392505050565b7f4e487b71000000000000000000000000000000000000000000000000000000005f52605160045260245ffdfe436c6f776e20746f6b656e2062616c616e6365206265666f7265207472616e736665723aa26469706673582212208d3bfa802a40ce769bb9ab7578c53d91d047f8a3c25473393c988ac5059c2a6d64736f6c637828302e382e33312d646576656c6f702e323032362e342e32392b636f6d6d69742e63643931363364380059","linkReferences":{}},"methodIdentifiers":{"addSecret(string)":"131e5eff","clownStamina()":"8045df35","hit()":"2ae3594a","hitsPerRound(uint256,address)":"9f7b2702","initialClownStamina()":"44216c78","reset()":"d826f88f","rob()":"19e96ec6","robAndReward()":"7e8aafe4","round()":"146ca531","secretsCount()":"5ba8ed3d","src20Token()":"a3f54956"},"id":6}